:020000040800F2
:1000000000000120A53F0008DD3F0008DD3F00089B
:10001000DD3F0008DD3F0008DD3F00080000000074
:10002000000000000000000000000000B5210008F2
:10003000DD3F0008000000004B2200085B220008A2
:10004000DD3F0008DD3F0008DD3F0008DD3F000820
:10005000DD3F0008DD3F0008DD3F0008DD3F000810
:10006000DD3F0008DD3F0008DD3F0008DD3F000800
:10007000DD3F0008DD3F0008DD3F0008DD3F0008F0
:10008000DD3F0008DD3F0008DD3F0008616F00082C
:10009000656F0008DD3F0008716E0008DD3F000855
:1000A000DD3F0008DD3F0008DD3F0008DD3F0008C0
:1000B000DD3F00080000000000000000DD3F0008F8
:1000C000DD3F00080000000000000000DD3F0008E8
:1000D00000000000DD3F0008DD3F000800000000D8
:1000E000DD3F0008DD3F00080000000000000000C8
:1000F0000000000000000000000000000000000000
:10010000000000000000000000000000DD3F0008CB
:100110000000000000000000DD3F0008DD3F000897
:10012000DD3F0008DD3F0008DD3F0008DD3F00083F
:10013000DD3F00080000000000000000000000009B
:10014000DD3F0008DD3F0008DD3F0008DD3F00081F
:10015000DD3F0008DD3F0008DD3F0008DD3F00080F
:10016000DD3F0008DD3F0008DD3F00080000000023
:10017000DD3F0008DD3F0008000000000000000037
:10018000DD3F0008DD3F0008DD3F000810B5054CED
:10019000237833B9044B13B10448AFF30080012333
:1001A000237010BDB80E00200000000054B00208FB
:1001B000084B10B51BB108490848AFF30080084848
:1001C000036803B910BD074B002BFBD0BDE81040FE
:1001D000184700BF00000000BC0E002054B0020809
:1001E000B00E002000000000154B002B08BF134B81
:1001F0009D46A3F5803A00218B460F461348144ACA
:10020000121A1FF0FBF90F4B002B00D098470E4B32
:10021000002B00D098470020002104000D000D485D
:10022000002802D00C4801F010FD1EF035FD200022
:10023000290001F0EBFE01F005FD00BF0000080001
:1002400000000120000000001D200008B80E002062
:10025000ACDC00204B1C00080000000003681847BD
:1002600008B10B68036070477047C36810B5044657
:100270000BB19B689847204610BD884238B50446AC
:100280000D460AD0FFF7F1FF3CB1EB681BB15B688C
:10029000294620469847EB68E360204638BD704702
:1002A000704738B515460C4606F01AFCB5FBF0F35E
:1002B00000FB13520AB1012006E0B4FBF0F300FB8F
:1002C0001340003018BF012080F0010038BD00004D
:1002D00070B50446054654F8043B7BB90C4E4FF00C
:1002E000FF31306803F014F82B6823B914B12046AD
:1002F00001F0EAFD2C60306803F028F82B68A34277
:1003000004D05B220349044801F04EFA286870BD0E
:1003100050D900207C8E0208A18E020838B50B4D02
:1003200004462846FFF7D4FF4FF0FF3101F0D3FD1C
:10033000204606F023FB04462846FFF7C9FF01F0DC
:10034000CDFD201C18BF0120404238BD080F002001
:1003500038B50B4D04462846FFF7BAFF4FF0FF3182
:1003600001F0B9FD204606F00BFB04462846FFF7D6
:10037000AFFF01F0B3FD201C18BF0120404238BD83
:10038000080F00202DE9F0410D4C05462046164689
:100390000F469846FFF79CFF4FF0FF3101F09BFDA1
:1003A00043463A463146284600F08CFD0546204635
:1003B000FFF78EFF01F092FD2846BDE8F08100BFF7
:1003C000080F00202DE9F04114461D4607468846D7
:1003D00006F0A6FB21460646384606F081FBB4FB34
:1003E000F6F306FB134323B9B5FBF6F306FB1353F1
:1003F00013B14FF0FF341EE0B542FAD3B4FBF0F373
:1004000000FB13432B449842F3D30C48FFF760FFE3
:100410004FF0FF3101F05FFD21462B464246384642
:1004200006F004FB003018BF012044420348FFF7E8
:100430004FFF01F053FD2046BDE8F081080F00207A
:10044000F8B506460D461446FFF72BFF28B31448AF
:10045000FFF73EFF4FF0FF3101F03DFDB4B12946FB
:10046000304606F08FFA10B14FF0FF340EE0294607
:10047000304606F035FB2246074629463046FFF750
:1004800010FF0028F0D0E41B3D44E7E70448FFF7E5
:100490001FFF01F023FD2046F8BD4FF0FF30F8BDEF
:1004A000080F0020C36810B504460BB19B6898473D
:1004B000204610BD2DE9F0410546154B45F8043B9B
:1004C00004460F46102604F120081C22002128466D
:1004D0001FF094F83246002140461FF08FF8324654
:1004E000002104F130001FF089F83246002104F1A8
:1004F00040001FF083F82346064A3946404606F07E
:10050000BBFE2846394600F00AFD2046BDE8F081D2
:10051000C08E02083506000883681A6843681A42CC
:1005200014BF01200020704783681A6843681A428C
:1005300014BF01200020704710B5084B044640F856
:10054000203B06F05BFF04F14000FFF78EFE04F154
:100550003000FFF78AFE204610BD00BFC08E0208A3
:1005600010B50446FFF7E8FF204601F09DFB20464A
:1005700010BDF0B50F4685B0044601F093F9FD6853
:1005800004F13006203435B139463046FFF775FEA8
:10059000012211460DE01022294668461FF02EF870
:1005A00069463046FFF769FE6846FFF75EFE2A4659
:1005B0000121204606F0E6FD01F0A0F905B0F0BDEE
:1005C000F0B50F4685B0044601F06CF9FD6804F102
:1005D000400620342DB139463046FFF74EFE012249
:1005E0000CE01022294668461FF008F8694630469C
:1005F000FFF743FE6846FFF738FE2A4602212046F1
:1006000006F0C0FD01F07AF905B0F0BDC36810B581
:1006100004462BB940F20E220449054801F0C4F803
:10062000E36820461B68BDE810401847C88E0208E2
:10063000E98E0208012908B502D0022904D008BDBC
:10064000C36B33B1303002E0C36C13B14030FFF7FD
:10065000DDFF08BD10B480B1146853680CB9DA0727
:100660000BD513F0010F4FEA63031CBFC258145996
:10067000184423465DF8044B18475DF8044B704757
:10068000043007F069BA000070B50A4D2B68834248
:1006900004460ED0061DD0F8DC20D0F8D810002378
:1006A000304607F0ABF9D4F8E010304607F0D0F947
:1006B0002C6070BD3C0F0020036870B5DB680446F9
:1006C0000D46164698470C4BC4F8D8501B68C4F822
:1006D000DC609C4206D1002332462946201D07F0EB
:1006E0008DF902E02046FFF7CFFF236820461B6903
:1006F000BDE87040184700BF3C0F0020036870B58C
:10070000DB6804460D469847094BC4F8E0501B6867
:100710009C4204D12946201D07F09AF902E02046A8
:10072000FFF7B2FF236820461B69BDE870401847F9
:100730003C0F002038B503680446DB680D46984737
:100740002046FFF7A1FF2946201D07F09FF92368E7
:1007500005461B6920469847284638BDF7B51F4611
:1007600003680446DB680D46164698472046FFF7A7
:100770008BFF94F8E4300193089B009329463B4695
:100780003246201D07F0B2F9236805461B69204652
:100790009847284603B0F0BD2DE9F0430646994638
:1007A000264B46F8043B85B0044600250F4690468C
:1007B00000219C2230461EF021FF04AB02950395D8
:1007C00013E9030004F1A4021D4B82E80300C4F8FE
:1007D000AC3048F20703C4F8B0301A4BC4F8B85034
:1007E000C4F8B440C4F8BC20C4F8C030BFF36F8F65
:1007F000BFF34F8F1022294604F1C4001EF0FEFE05
:100800000823C4F8D830104BC4F8E030FF2384F834
:10081000E430BDF93030009342464B46394630460D
:1008200084F8D450C4F8DC5007F042F82046FFF7B3
:100830002BFF204605B0BDE8F08300BF048F0208FF
:1008400001A090E85506000840420F0010B5044B87
:10085000044640F8C43BFFF725FE204610BD00BF0C
:10086000048F020810B50446FFF7F0FF204601F0A0
:100870001BFA204610BD38B5044648B100F15805B2
:10088000A54205D02C3D05F11800FFF70BFEF7E758
:10089000204638BD38B500250446294640F8045B9B
:1008A00028221EF0ABFE1022294604F118001EF08B
:1008B000A5FE204638BD000008B50448FFF708FD36
:1008C0004FF0FF31BDE8084001F005BB400F0020AC
:1008D00008B50348FFF7FCFCBDE8084001F0FEBA8C
:1008E000400F002010B50A4C2046FFF7D3FF04F15B
:1008F0002C00FFF7CFFF0023A3652046E365054AE0
:1009000084F860300449BDE8104001F099B900BF97
:10091000740F0020880100207708000803681B6915
:10092000184703689B69184703689B6A18474FF08C
:10093000FF30704711207047704700F0A9B8A0F150
:100940004C00FFF7FABF00F0A6B8A0F14C00FFF78B
:10095000FABF4FF0FF31643001F0BDBAA0F14C0096
:10096000FFF7F7BF643001F0B9BAA0F14C00FFF710
:10097000F9BF00000B4B10B503F10802026003F150
:10098000280284330446C2640365643001F0A9FA86
:1009900004F14C0000F0D0FE204600F00BF9204698
:1009A00010BD00BF208F0208A0F14C00E2E7A0F1CB
:1009B0005000DFE710B50446FFF7DCFF204601F0EA
:1009C00073F9204610BDA0F14C00F3E7A0F15000F0
:1009D000F0E7000038B504461D46049B00F062F8BD
:1009E000294604F14C0000F07FFE074B03F108029A
:1009F000226003F128028433E264236504F1640079
:100A000001F062FA204638BD208F020870470000CE
:100A1000090170B501F128050544EB6873B144186C
:100A2000636B2BB940F20E220549064800F0BCFE6C
:100A3000636B28461B68BDE87040184770BD00BF57
:100A4000C88E0208E98E020870B50546044655F8BE
:100A5000043B0E461B6898472846314606F048F985
:100A60002368A66420465B68BDE87040184738B527
:100A70000546044655F8043B1B689847284606F08F
:100A8000D3FE236805465B6820469847284638BD54
:100A9000043006F0A5B910B504300C4606F0B6F9DE
:100AA000204610BD2DE9FF4705469A46224B45F8E2
:100AB000043B04468846914604F12807242200217D
:100AC00028461EF09BFD04F138061022002138460E
:100AD0001EF094FD1022002130461EF08FFD1022E2
:100AE000C4F848A0002168461EF088FD69463846D3
:100AF000FFF7C3FB6846FFF7B8FB102200216846EA
:100B00001EF07CFD69463046FFF7B7FB6846FFF7ED
:100B1000ACFB4A464146284606F046F8A16C2846FA
:100B200006F0E6F828462246044906F0E5F8204695
:100B300004B0BDE8F08700BFB48F0208110A0008B6
:100B40002DE9FF410646884656F8043B17461B68C8
:100B500005463C01984700F0A5FED8F80C30283433
:100B60002C444BB1E3680BB900F058FA41462046DB
:100B7000FFF783FB012210E0E3680BB100F068FA95
:100B80001022002168461EF039FD69462046FFF715
:100B900074FB6846FFF769FB00223946304606F0D1
:100BA000B7F800F0ABFE2B6828465B68984704B0A6
:100BB000BDE8F0817FB5164B03600446102200218A
:100BC00068461EF01BFD002269462046FFF7B8FF6D
:100BD0006846FFF74AFB1022002168461EF00EFD12
:100BE000012269462046FFF7ABFF6846FFF73DFB51
:100BF00014F1280608D004F14805B54204D0103D90
:100C00002846FFF732FBF8E7204604B070BD00BF6E
:100C1000B48F020810B50446FFF7CCFF204601F060
:100C200043F8204610BD70B5D0E90823D0E902454D
:100C3000064612196B4100F021F9736B2BB106F1D6
:100C400028001B68BDE87040184770BDD0B5044649
:100C500016461F4600F026FE204600F019F9C4E9AA
:100C60000867A06900F0DCFB321847EB010320465F
:100C700000F004F9BDE8D04000F040BE7FB5044666
:100C800000F010FE204600F003F9636B13B194F8F6
:100C90003830E3B904F128066D4610220021684679
:100CA0001EF0ACFCAE420BD03046FFF7DEFA3EB190
:100CB000039B1BB15B68694630469847039B63639F
:100CC0002846FFF7D2FA00F019FE04B070BD00F01C
:100CD000BFF9DFE738B50546064B45F8283B044623
:100CE000FFF7CCFF2846FFF7C0FA204600F0D6F801
:100CF000204638BDCC8F020810B50446FFF7EAFF46
:100D0000204600F0D1FF204610BD0000436B70B5B7
:100D1000044600F128052BB940F20E22044905488B
:100D200000F042FD636B28461B68BDE87040184721
:100D3000C88E0208E98E020810B5034B0360044612
:100D4000FFF7C8FF204610BDE08F020810B504462B
:100D5000FFF7F2FF204600F0A7FF204610BD10B5B8
:100D6000044600F09FFD23681BB1237F0BB100F008
:100D70006FF90023236000F0C1FD204610BD10B5BF
:100D8000044600F08FFD236853B9237F0BB100F0B8
:100D900045F9A06900F044FBC4E902010123236086
:100DA000BDE8104000F0AABD38B5044600F07AFD59
:100DB000236843B1A06900F033FBD4E90245041B6A
:100DC00061EB050501E00024002500F097FD2046B9
:100DD000294638BD70B5064600F064FD3046D6E9B8
:100DE0000445FFF7E1FF24184D4100F087FD204640
:100DF000294670BD08B5FFF7EDFF08BD10B50446E4
:100E000000F050FDA06900F00BFB00220023C4E9B4
:100E10000201C4E90423BDE8104000F06FBD0023C7
:100E200010B5002203600023C0E90223C0E90423B7
:100E3000044600F009FB0123A06123772046FFF759
:100E4000DDFF204610BD03689B681847094B10B5AD
:100E5000002203600023C0E90223002303614361F1
:100E6000044600F0F1FA0449A06100F067FA204658
:100E700010BD00BFF48F0208470E000807B50090B0
:100E800000F10801806900F087FA03B05DF804FB07
:100E900000F10801806900F0A9BA000010B5034B09
:100EA00003600446FFF7F4FF204610BDF48F0208EC
:100EB000036801221B6900211847036800221B698F
:100EC0001146184708B510461A461EF099FA002038
:100ED00008BD70B50E460446154606F0A7F8013663
:100EE00009D02046002106F0C7F829462046BDE873
:100EF000704006F0BDB870BD38B504460D460368B5
:100F00000AB1826800E0C26813602046012106F041
:100F1000B3F829462046BDE8384006F0A9B80022BB
:100F2000FFF7D7BF70B50E460446154606F07EF8AB
:100F3000013606D02A4620460021BDE87040FFF762
:100F4000DBBF70BD0022FFF7EDBF000010B5044607
:100F5000013001D110BD0C31B1F900305A1C0BD059
:100F60009C42F8D12046896806F03CFB20460021CF
:100F7000BDE8104006F0D2BB0248BDE8104000F0CA
:100F8000F5BC00BF00900208884208B50AD0431C97
:100F900007D0013106D0044800F0E8FC4FF0FF30E4
:100FA00008BD084608BD00BF11900208B1F9003025
:100FB0005A1C05D0834201D1486870470C31F5E7CF
:100FC00018467047421C10B5044607D0FFF7EEFFE5
:100FD000431C044602D1024800F0C8FC204610BD64
:100FE00022900208B1F900305A1C05D0834201D189
:100FF000886870470C31F5E718467047421C10B5F9
:10100000044607D0FFF7EEFF431C044602D1024816
:1010100000F0ACFC204610BD4290020808B500F07C
:1010200041FC094B1A884FF6FF739A4204D100F035
:1010300065FC064800F09AFC0121034800F07CFCA6
:10104000BDE8084000F05ABCD80F002060900208AC
:1010500008B500F027FC084B1B8823B900F04EFCB4
:10106000064800F083FC0121034800F072FCBDE853
:10107000084000F043BC00BFD80F00208D9002084C
:1010800008B500F00FFC06F0EBFBBDE8084000F0EF
:1010900035BC00002DE9F04790E8080404465B6881
:1010A000984763681B6A984259D0DAF82060DAF8EA
:1010B0000C30CAF82000861B06EA0301DAF80800A3
:1010C000284EB0420A464FF0000342D0B0F5004F20
:1010D000A1FB0667DAE90A451AD1F20B42EA474258
:1010E000A4194FEAD7337D41D603DF03A41B47EA97
:1010F000524765EB0705002D08BFB4F5004F26D316
:10110000013243F10003B4F5004445F1FF351EE020
:101110004FF00009804602464B463046394627F0DC
:1011200015FDA4197D41A8FB0067A41B08FB0177EE
:1011300065EB07054D4508BF444502460B4606D3FF
:10114000421C41F10003B4EB080465EB0905CAE950
:101150000A45DAE90C0112184B41CAE90C23BDE833
:10116000F08700BF40420F00824206D98A420BD965
:10117000884294BF002001207047884206D98A42E5
:101180008CBF00200120704701207047002070476D
:101190002DE9F0478046D0F80490FFF77BFFD8F8A0
:1011A0000460D8F800A0716800294AD0D6E90C2361
:1011B000D1E90045AB4208BFA24202D3DAF81430AD
:1011C0003CE0A41A65EB0305D6E90623AB4208BF51
:1011D000A24237691CD3B368214A934203D1A74284
:1011E00028BF274614E0B3F5004F06D1E9031C4A97
:1011F0000023E00341EA544105E0A3FB0401184A3F
:1012000003FB0511002327F0A1FC874228BF0746F6
:10121000326AF36817441F403846DAF810309847AE
:10122000D8F800305B6898473A460146D9F8200064
:10123000FFF79AFF90B1D8F800305B69BDE8F0473E
:101240001847D9F82000D9F81030DAF810200344F4
:10125000D9F80C00BDE8F04718401047BDE8F0870A
:1012600040420F0003682DE9F74F04461B6898477A
:1012700023689B699847D0F800B00546BBF1000F82
:1012800006D129222A492B48DFF8ACB000F08CFAAD
:10129000D5F804A0AAF104031C2B06D92F22244957
:1012A000244800F081FA4FF0200AAAF10403072530
:1012B0001BF1FF3005FA03F51F4E4FF0000343F119
:1012C000FF315A46C6FB050127F040FCD4F80480E4
:1012D0000023C8F80030C8F8043023685B680F4664
:1012E000064698476368C8F820004FF000094FF0A1
:1012F0000008C3E90A89C3F808B05246012000215A
:10130000019326F017FF019B01220138D8601D616F
:101310002046C3E90667C3E90C8983F83820FFF744
:10132000B9FE204603B0BDE8F04FFFF731BF00BF64
:10133000B3900208F4A9020840420F0038B5436890
:1013400093F8383004460D460BB9FFF78BFF6368FE
:101350001D6038BD036870B5DB6804469847636854
:101360005B68A3B12046FFF795FE65686E68D5E916
:101370000C01D6E90023994208BF904207D3F368D5
:101380006B602B68002BEAD0B0689847E7E72046EF
:10139000BDE87040FFF7FCBE2DE9F84305460C465A
:1013A00016461F46DDF8208000F07CFA2846FFF73D
:1013B00071FE6968C4F80880C4E900674B680022C0
:1013C00043B1D3E900894F4508BF464502D31A46C9
:1013D000DB68F5E7E3600AB94C6000E0D4602846BA
:1013E000FFF7D6FEBDE8F84300F088BA38B50546E9
:1013F0000C4600F057FA6A685368A34206D1DB68CE
:1014000053602846FFF7C4FE06E0134623B1DA68AE
:101410009442FAD1E268DA60BDE8384000F06EBA72
:10142000436893F8383010B504460BB9FFF71AFF3C
:101430002046FFF72FFE6368D3E90C0110BD08B505
:10144000FFF7EEFF08BD000000487047F09002086B
:101450000148FFF77FBF00BFF0900208007B704794
:1014600038B504460D4B036000234360A16002734E
:101470000B480D46FEF72CFF4FF0FF3100F02BFD1F
:1014800025B1084B1A6862601C6000E06560044882
:10149000FEF71EFF00F022FD204638BD0091020835
:1014A0002410002020100020134B10B503600446C8
:1014B0001248FEF70DFF4FF0FF3100F00CFDA3685E
:1014C0006BB10F4A13689C4202D16368136006E057
:1014D0005A68944201D01346FAE762685A60074896
:1014E000FEF7F6FE00F0FAFC237B13B9201F00F094
:1014F000E1FB204610BD00BF00910208241000202F
:101500002010002010B50446FFF7CEFF204600F063
:10151000CBFB204610BD000070B506460F480D46B7
:10152000FEF7D6FE4FF0FF3100F0D5FC0C4B1C68E7
:101530005CB1A06880B12A4631461EF06FFF58B9F1
:10154000A0681EF0FDFE854206D10448FEF7C0FEED
:1015500000F0C4FC204670BD6468E9E72410002058
:10156000201000200020704700207047036870B5ED
:101570001B690122002105469847041E0EDB2B68DB
:1015800002221B690021284698472B6806461B69E2
:101590000022214628469847304670BD204670BD3F
:1015A00000F058BB10B50023036043600A782F2A6F
:1015B000044613D14A788AB1481C20601946236832
:1015C0001A782F2A02D10133236004E01AB10133C3
:1015D00001312360F3E7FFF79FFF6060204610BDF5
:1015E00000687047406808B520B1FFF737FF431E19
:1015F0005842584108BD10B50446FFF7F3FF10B13B
:10160000606800B1043810BD406808B520B1FFF72C
:1016100025FFB0FA80F0400908BD10B50446FFF779
:10162000F3FF10B1606800B1043810BD40680030AD
:1016300018BF0120704770477047F8B50368DB6C2E
:101640000E4604468F1898473546BD4208D0236899
:1016500015F8011B5B6C204698470130F5D12F46E9
:10166000236820461B6D9847B81BF8BDF8B5036882
:10167000DB6C0E4604468F1898473546BD4208D0AD
:10168000236820469B6C9847431C02D005F8010B49
:10169000F4E7236820461B6D9847A81BF8BD00207F
:1016A00070477047002070470020704710B5054B09
:1016B00003604C33044640F8043FFFF7F5FE204634
:1016C00010BD00BF5C910208A0F10400EEE700BF6E
:1016D00010B50446FFF7EAFF204600F0E5FA204681
:1016E00010BDA0F10400F3E70F4B10B50022044633
:1016F00040F8043BFFF7B4FE0C4B23605C3363609F
:10170000002363610A492046FFF74AFF606110B178
:1017100000F09DFA05E01CF0D5FB0168054800F0DB
:1017200025F9204610BD00BF10910208B8910208AB
:101730001C9202081F92020810B5074B03F1080221
:10174000643304460260436040691CF003FC204699
:10175000FFF7ACFF204610BDB09102080EB477B57C
:10176000036807AD044655F8046BDB6C9847606965
:1017700001951CF0B1FC019A6069314622F030FD00
:10178000236805461B6D20469847284603B0BDE8F0
:10179000704003B070471DF02BBB1DF0CDBF1CF097
:1017A0002DBE1CF05FBB000070B504460D4616460A
:1017B00000F078F833462A462146034800F058F8EE
:1017C000BDE8704000F002B83E92020810B588B043
:1017D00000F068F8132101A8FFF7B4FB0424039B71
:1017E000019A1A60962000F03BFB049B019A1A6054
:1017F000962000F035FB013CF1D10424039B019AB3
:101800001A604FF4C87000F02BFB049B019A1A6019
:101810004FF4C87000F024FB013CEFD1DEE700007C
:1018200030B50D46A1B0044600F03CF82B462246E8
:101830008021684622F050FD051E03DC00F05EF8B2
:1018400021B030BD084B1B6823B90F220221074885
:1018500005F0AAF900241DF804100448013405F02D
:10186000D5FAA542F7D1E9E71C18002048DC002092
:101870000FB407B504A951F8040B0191FFF7D0FF8D
:1018800003B05DF804EB04B07047EFF3108000F094
:10189000010080F001007047EFF30580003018BFB1
:1018A0000120704738B5FFF7F0FF054672B60E4CC1
:1018B000236823B980F001030C4ADBB2137023685C
:1018C000013304D143220A490A48FFF76DFF236818
:1018D0002BB125B1472206490748FFF765FF23686A
:1018E0000133236038BD00BF581000205C10002079
:1018F0006F92020893920208B992020810B50A4C3E
:10190000236883B1FFF7C1FF20B158220749084877
:10191000FFF74AFF2368013B236023681BB9054B8F
:101920001B7803B962B610BD581000206F920208F0
:10193000B99202085C10002038B505460C46FFF746
:10194000B1FF2B881C44A4B22C80FFF7D7FF2046A0
:1019500038BD38B505460C46FFF7A4FF2B881C1B85
:10196000A4B22C80FFF7CAFF204638BD0FB413B5D0
:10197000084B1A784AB9012405A904981C700191F2
:10198000FFF74EFF204600F05DF902B0BDE81040C1
:1019900004B070475D10002008B5084B1B685BB9A8
:1019A000022107480F2205F0FFF84FF416510448B2
:1019B000BDE8084005F09CB908BD00BF1C18002018
:1019C00048DC0020022810B501DC002010BDC31E39
:1019D0000B4A52F82300002142F8231020B91CF0D2
:1019E00071FA0923036008E003685B699847041EE5
:1019F000EBDA1CF067FA644204604FF0FF3010BD70
:101A00009810002070B505460E461446FFF744FFB7
:101A100060BBFFF73AFF48B3022D0EDC154B1B6885
:101A20000BB9FFF7B9FF35462644AE421CD015F876
:101A3000011B114805F0EAF9F7E7033D0F4B53F896
:101A4000250030B91CF03EFA092303604FF0FF3047
:101A500070BD03682246DB6831469847041E03DAEE
:101A60001CF030FA63420360204670BD0448FFF763
:101A70007DFFD1E71C18002048DC002098100020D2
:101A8000DC92020870B504460D461646FFF704FFC7
:101A900040BBFFF7FAFE28B3022C0ADC134B1B688D
:101AA0000BB9FFF779FF124805F09AF92870012069
:101AB00070BD033C0F4B53F8240030B91CF002FA00
:101AC000092303604FF0FF3070BD036832469B6806
:101AD00029469847041E03DA1CF0F4F963420360B8
:101AE000204670BD0448FFF741FFD5E71C180020D1
:101AF00048DC00209810002016930208022810B538
:101B000015DD03380C4B53F8204024B91CF0DAF9EA
:101B1000092303600DE023682046DB699847041E13
:101B200007DA1CF0CFF964420460002010BD0120E8
:101B300010BD204610BD00BF98100020022810B52F
:101B400003DC1CF0BFF91D2307E003380B4B53F8EF
:101B5000200020B91CF0B6F90923036008E00368EF
:101B60001B699847041E06DA1CF0ACF96442046055
:101B70004FF0FF3010BD204610BD00BF9810002070
:101B8000022838B50D4603DC4FF400534B601BE0D0
:101B900003380E4B53F8204034B91CF093F9092355
:101BA00003604FF0FF3038BD23682046DB6998475B
:101BB000002814BF4FF400534FF400436B602368B8
:101BC00020469B6A98472861002038BD9810002065
:101BD00008B5012000F036F80C4A136810B5184417
:101BE000EFF30881884205D3094B0C221A604FF0AD
:101BF000FF3010BD0749096821B1074C2468214412
:101C00008842F1D21060184610BD00BF8C01002040
:101C1000A8DC00209410002098110020074C08B583
:101C20002368054698681CF057FA2368D8681CF0AA
:101C300053FA0DB1FFF7CAFDFEE700BF18090020F7
:101C40000120704708B5FFF7E9FF01207047002128
:101C50001EF022B81FB504220C463A230DEB0201F8
:101C600001900DF109008DF808301DF0C9FB2146E7
:101C700002A81CF06DFB044638B101980368DB69CB
:101C8000984710B12046FFF7E2FF204604B010BD90
:101C900008B500F0E3F908BD08B500F0E7F908BDA4
:101CA00008B11DF09DB87047FFF7FABF00487047B4
:101CB0002C94020810B504460C48FEF709FB4FF0BF
:101CC000FF3100F008F90023094A194652F82300B1
:101CD000A04208BF42F823100133402BF6D103483D
:101CE000FEF7F6FABDE8104000F0F8B860100020EA
:101CF000981000202DE9FF478946444905461EF00B
:101D000043F9044610B9FFF747FE7BE040492846F7
:101D10001EF03AF918B9FFF73FFE012472E03D4981
:101D200028461EF031F918B9FFF736FE022469E0A3
:101D30003948FEF7CDFA4FF0FF3100F0CCF8374BC1
:101D40000024364E53F82470B04667B10134402C5D
:101D5000F7D11CF0B7F8182303602F48FEF7B8FA44
:101D600000F0BCF84CE04FF0FF332B4846F824302D
:101D7000FEF7AEFA00F0B2F82B7801973A2B07D1B4
:101D80000422691C02A81DF03BFB029B019332E078
:101D9000294602A8FFF706FC02A8FFF747FC054604
:101DA00068B102A8FFF730FC074602A81FB1FFF791
:101DB00034FC01901FE0FFF71EFC054630B91CF013
:101DC00081F80223036046F8245019E0036802A852
:101DD000D3F808A0FFF704FC29F48033024601A9D8
:101DE0002846D047054630B11CF06CF86D420560BE
:101DF00046F8247004E0019B48F82430033401E0E5
:101E00004FF0FF34204604B0BDE8F087CD920208C1
:101E100023940208D4920208601000209810002039
:101E2000F8B50546FFF710FB0646FFF708FB4FF431
:101E30007A7495FBF4F4002C074602DDFFF725FDCC
:101E400030B93046FFF7FBFAC01BA842F9D3F8BD02
:101E5000FFF7E4F8204602F01DF8FFF7F9F8F0E785
:101E60004FF47A735843FFF7DBBF0000F8B5044620
:101E700000F114070D461C220021261D38461DF0D6
:101E8000BDFB1022002130461DF0B8FB0B4BE76074
:101E9000002D08BF1D461C2323610B236560A36032
:101EA000304601F009FA206030B931220449054872
:101EB000BDE8F840FFF778BCF8BD00BF34940208D5
:101EC0004D9402086794020810B500210446FFF7FC
:101ED000CDFF204610BD006801F01ABA006801F07D
:101EE00035BA10B50446006801F04CFA204610BD22
:101EF000154838B5154B03600B251C24144B456061
:101F0000C460836001F0D8F9124B18601248134B7B
:101F1000C46080E82800124B836001F0CDF9114BBA
:101F200018601148114BC46080E82800104B836092
:101F300001F0C2F90F4B18601CF0AEFE00210846FC
:101F4000BDE8384000F062B88CD800206B940208DD
:101F500054D9002050D90020B8D800207B94020822
:101F600010D9002088D8002070D900208894020859
:101F70009CD8002080C800200A4A0B48C2F10053B8
:101F800003F58033B3F5806F194628BF4FF48061A5
:101F90005B1A016005499818086005490B60054BFC
:101FA0001A607047ACDC0020A01100209C110020BA
:101FB0009410002098110020704700000D4A0E4830
:101FC00008B50E4B13614FF4805353614823D3601F
:101FD0000B4B93601823936100210A4B136001F0AF
:101FE000B3FE10B90848FFF7C1FCBDE8084000F097
:101FF00021BB00BF2CD90020F11E000888C800209A
:10200000C8D80020929402089E94020808B5FFF7F1
:10201000D3FFBDE808401AF0EBBE000010B5FFF793
:10202000ABFF0B4B0B499A680B48043A52F8044F2C
:1020300041F8044F8142F9D14FF000529A6005F007
:10204000A9FA00F0ADFABDE81040FFF7B7BF00BF36
:1020500000ED00E0FCFFFF1F84010020024B4FF069
:10206000FF31186801F054B988D80020014B186876
:1020700001F06CB988D8002008B500F093F8FCE7AF
:1020800008B505460C4601F07BFE6B1E0246042B8C
:1020900024D8DFE803F0030D13191E00204601F0D9
:1020A00057FE2246034601210F48FFF75FFC19E067
:1020B000234602210D48FFF759FC13E02346032174
:1020C0000B48FFF753FC0DE004210A48FFF74EFCD4
:1020D00008E005210848FFF749FC03E029460748C6
:1020E000FFF744FCFEE700BFBA9402080B95020814
:1020F00061950208C6950208219602088196020899
:10210000831D052B96BF044A044A52F8232001463A
:102110000348FFF72BBC00BF2C980208BB960208AF
:10212000C39602088B1D052B0A4696BF0349044B34
:1021300051F8233001460348FFF718BC2C980208D9
:10214000BB960208D99602088B1D052B0A4696BF3E
:102150000349044B51F8233001460348FFF706BCFE
:102160002C980208BB960208229702080A460146EC
:102170000148FFF7FBBB00BF6C97020808B501F0F0
:10218000FFFDBDE8084001F07DBE08B5FFF78AFB02
:10219000FEF744FFFEF774FFFEF75AFFBDE8084064
:1021A000FFF7ACBB08B5024C23689847FCE700BFBB
:1021B00090010020EFF30980816911F8021CB9BB7E
:1021C00001B590E80F10E047BDE800508CE803002F
:1021D000264B93E80600914208BF704741B91EF0B4
:1021E000100F10D12249086820F0010008600AE0B1
:1021F0002CE9F00F1EF0100F08BF2CED108AC1F86B
:1022000038C081F822E001F079FB184B93E8060012
:102210001A6092F82210906B61F0FF0E1EF0100F02
:1022200008BFB0EC108AB0E8F00F80F3098870475F
:1022300010B5104A1368994206D852F821400FC8C9
:10224000A047EFF30984206010BD10B501F0C4F879
:10225000BDE81040EFF3098CBAE710B501F05AF968
:10226000BDE81040EFF3098CB2E70000B401002094
:1022700034EF00E01499020808B5014610B11320AC
:1022800001F0D0FC002008BD10B5044600F02EF887
:10229000EFF305832BB9EFF3108313B9EFF3118339
:1022A0003BB16FF005010020FFF73CFF6FF0050028
:1022B00010BD2046DFF804C000DF10BD7922000801
:1022C0007047704770477047704770477047704756
:1022D0007047704770477047704770477047704746
:1022E0007047704770477047704770477047704736
:1022F0007047704770477047704770477047704726
:102300007047704770477047704770477047704715
:102310007047704770477047704770477047704705
:10232000704770477047704770B56348017A01295C
:10233000044600F0BD8011B14FF0FF3009E05F4D61
:10234000A82208301DF05AF96B6D472B06D86FF0A4
:102350000A00FFF7D5FE4FF0FF3070BDEA68002A93
:10236000EAD02B8A002BE7D0EE6AA4F85C30296B08
:10237000AB6862663046A36400F092F908B1C4F815
:1023800088606E69A969304600F08AF908B1E6678D
:1023900002E0D4F88830E367EE69296A304600F03D
:1023A0007FF910B1C4F8806003E0D4F88830C4F835
:1023B00080306E6AA96A304600F072F910B1C4F834
:1023C000846003E0D4F88830C4F884306E6B46B182
:1023D000F368B2683168304600F0DDF908B1C4F83E
:1023E0008C60AE6B46B1F368B2683168304600F07D
:1023F000D2F908B1C4F89060EE6B46B1F368B268E8
:102400003168304600F0C7F908B1C4F894602E6C0A
:1024100046B1F368B2683168304600F0BCF908B1E3
:10242000C4F898606E6C46B1F368B26831683046A3
:1024300000F0B1F908B1C4F89C60AE6C46B1F36825
:10244000B2683168304600F0A6F908B1C4F8A0605F
:10245000EE6C46B1F368B2683168304600F09BF923
:1024600008B1C4F8A4602D6D45B1EB68AA6829686D
:10247000284600F090F908B1C4F8A850104AFF238C
:1024800082F8223092F82230D16863F0FF03DB43F8
:10249000B3FA83F3C3F12003C1F302218B4298BF47
:1024A0004B1CFE2101FA03F3DBB2D3770123237225
:1024B000FFF70DFF002070BD9801002088980208EA
:1024C00000ED00E010B5034C207AFFF701FF207A01
:1024D00010BD00BF9801002038B52A4C237A012B8B
:1024E00002D06FF006000BE0236B274D6BB9AA6D8D
:1024F0002648194601F094FA206330B94FF0FF30B6
:10250000FFF7FEFD4FF0FF3038BD6B6E5BB1236D02
:102510004BB91D4A1E48D26D194601F081FA194B7C
:1025200018650028EAD01B4801F0E5F80028E5D03E
:1025300001F006FA2B68DB074CBF0223032383F369
:102540001488154B1B68E36000F0BEFF0028A061F3
:102550000FDB00F1604303F56143FF2283F80023A2
:102560004211012300F01F0003FA00F00B4B43F867
:10257000220000F0C3FF02232372FFF7ABFE00200E
:1025800038BD00BF98010020889802087920000813
:10259000393E0008BC0100204802002000E100E0B4
:1025A00008B5FFF793FEEFF305832BB9EFF3108324
:1025B00013B9EFF3118333B16FF00500FFF7A0FDFE
:1025C0006FF0050008BDDFF828C0EFF3148313F0A7
:1025D000020F0AD113F0040FEFF308830CBF203B66
:1025E000683B23F0070383F3098800DF08BD00BFC1
:1025F0002923000808B5EFF305832BB9EFF3108307
:1026000013B9EFF3118333B14FF0FF30FFF760FEE2
:102610004FF0FF3008BDEFF31483DB0703D4BDE8B0
:102620000840FFF74FBFDFF808C000DF08BD00BF5C
:10263000C524000808B5FFF74CFEEFF305832BB95E
:10264000EFF3108313B9EFF3118333B16FF005008B
:10265000FFF756FD6FF0050008BDFFF7CBFF02281E
:1026600005D00D4B1B6813B15B6803B19847DFF8C9
:102670002CC0EFF3148313F0020F0AD113F0040FF0
:10268000EFF308830CBF203B683B23F0070383F381
:10269000098800DF08BD00BF80D90020D9240008C8
:1026A00038B50C46034630B140EA010212F0070289
:1026B00001D1172906D8184600222146FFF700FE4F
:1026C000002038BDA1F108041025196045602518C7
:1026D00085602250C2600122FFF7F2FD012038BD63
:1026E000F8B518B111B132F0030304D00023FFF79D
:1026F000E8FD0020F8BD0F3121F0070100F10805C9
:102700002E68D5F804E0731B2EF003041B1B9942BE
:1027100005D934683546002CF2D12346E7E74368F3
:102720000B44436042EA0107BEF1000F03D16F6022
:1027300005F1080405E02B192E515F6003F1080430
:102740002B602346FFF7BDFD2046F8BD38B500B12C
:1027500021B90022FFF7B6FD002038BDA1F1080520
:1027600000F108030022AB4205D01C681A46002C79
:10277000EFD02346F7E75C6824F003054468641B48
:1027800044600AB95A6001E01B6813600122FFF738
:1027900099FD012038BD2DE9F0410D4617461C4634
:1027A0000646F8B101B312B323B34FF0000E02FB9B
:1027B00001F83160C0F804E003EB080EF3607361C8
:1027C000B260C0F810E0FFF77EFD2346013D03D064
:1027D000DA191A601346F9E7C7EB08002550012003
:1027E000BDE8F081BDE8F0810846BDE8F081104603
:1027F000BDE8F0811846BDE8F08138B5054620B93E
:102800000146FFF761FD284638BD031D026853E805
:10281000001F8A4202D8BFF32F8F04E0481C43E810
:10282000000404B1F3E72B688B420ED905F11403C1
:1028300053E8000F10B9BFF32F8F04E0026843E89C
:10284000002101B1F4E7044600E0002428462146B7
:10285000FFF73AFD204638BD38B528B1C3688B4232
:1028600002D80369994206D36FF00302FFF72DFDEA
:102870006FF0030038BD031D53E8002F12B9BFF3FA
:102880002F8F04E0541E43E8004505B1F4E782B100
:1028900000F114031A680A60BFF35F8F53E8002F3A
:1028A0000C689442F6D143E8001505B1F2E7002424
:1028B00001E06FF002042246FFF707FD204638BD15
:1028C000036B30B5A3B1CD780024DA78AA4204D2E4
:1028D0005A681C461AB11346F7E71A4623464A605F
:1028E0008B600AB1916000E0C16223B1596003E0DE
:1028F0004B608B60C1620163283050E8003F5A1C76
:1029000040E8002101B1F8E730BD4B688A680BB19F
:102910009A6000E0C2628A680AB15360704703633C
:10292000704700002DE9F74F804600B131B96FF0D4
:1029300003010020FFF71AFC00208EE0033121F094
:10294000030303F10C090193B9FA89F1B0FA80F39A
:102950000B441F2BEBDD09FB00FAE2B19468D2F8BF
:1029600000B0166950693CB1A30702D1D368332B7C
:1029700005D86FF00801DCE7D368002BF9D13EB130
:1029800016F0030301D182455FD96FF00901D0E74A
:1029900000285ED0F9E793461646314BD3F8A800DD
:1029A00010B1FFF72AFF05E001223421D3F8880097
:1029B000FFF796FE044620B96FF00401FFF7D6FB3F
:1029C00041E026BB0125264F00225146D7F884005E
:1029D000FFF786FE064690B96FF00401FFF7C6FBCD
:1029E000002DA9D0D7F8A85021461DB12846FFF7E1
:1029F00033FFA1E7D7F88800FFF7A8FE9CE752460F
:102A000000211CF0FBFD45F00200C0B200E00120F7
:102A1000082323700123019A63700023A070A36030
:102A20006262A362E36223634A463346C4F804B099
:102A3000414604F10C00FFF7AEFE094B094A9A67C4
:102A40002046FFF765FC204607E0002CA5D018467D
:102A5000DEE7002CA1D00546B5E703B0BDE8F08F56
:102A600098010020652B00082DE9F0410E469046A4
:102A70001D46044618B10378082B00D141B9204601
:102A80006FF00301FFF772FB6FF00300BDE8F08108
:102A9000437823B96FF00201FFF768FB5CE08368BD
:102AA00003B35B78832B1DD1FFF737FC204600F082
:102AB00022FE01220546002100F080FF284600F09A
:102AC0009BFE0546626A806831461CF099FCEB6803
:102AD0000BB183F800802046A968FFF723FC002093
:102AE000BDE8F08104F10C00FFF787FE0746B8B19E
:102AF000626A31460C301CF083FC07233B700025D2
:102B000001237B7039462046BD7087F80380FFF7AC
:102B1000D7FE20463146FFF700FC2846BDE8F0818D
:102B2000B5B12A4631462046FFF7F4FB0C4B204650
:102B3000D96900F0CDFD2946932001F073F8EFF339
:102B400009836FF001009E60C3F80C80BDE8F0813E
:102B500031462046FFF7E2FB6FF00200BDE8F0814E
:102B600098010020F8B543780446002B7AD0867887
:102B7000002E3ED0C5686B78002B73D0014600262E
:102B8000284605F10C07FFF7C0FE6670214638465F
:102B9000FFF762FEAB68002B64D05B78932B61D1AA
:102BA0003846FFF72AFE044600285BD0284600F08E
:102BB000A2FD32463146074600F000FF384600F0DD
:102BC0001BFE6A6A8168074604F10C001CF018FCC1
:102BD0000723237001236370A670FB68E37021460E
:102BE0002846FFF76DFEB9682846BDE8F840FFF7B4
:102BF00094BB85686B78ABB3AB684BB35B78832BC6
:102C000026D141682846FFF788FB284600F073FD6F
:102C100032463146074600F0D1FE384600F0ECFD62
:102C200006466A6A806804F10C011CF0E9FBF3684F
:102C30000BB1E2781A70B1682846FFF773FB0023E6
:102C40006370214605F10C00BDE8F840FFF704BEB3
:102C500061682846FFF761FB21462846BDE8F84039
:102C6000FFF72EBEF8BD10B500F1280353E8002F82
:102C700012B9BFF32F8F04E0511E43E8001404B1D2
:102C8000F4E70AB9002010BDC06A01230028F9D07A
:102C9000821CD2E84F1FC2E8443F04B1F9E711F0AB
:102CA000FF0F01D08068F1E710BD00002DE9F04171
:102CB0000D4617469846044618B10378082B00D1F4
:102CC00041B920466FF00301FFF750FA6FF003009F
:102CD000BDE8F081437823B96FF00201FFF746FAAF
:102CE0003EE0FFF7C0FF0646E8B101462046FFF789
:102CF0000CFE626A06F10C0128461CF081FB0FB144
:102D0000F3783B7029462046002504F10C07FFF7B5
:102D100009FB757031463846FFF79EFDA3681BBB63
:102D20000020BDE8F081B8F1000F15D042462946D9
:102D30002046FFF7F5FA234B2046D96900F0C8FC7E
:102D40004146832000F06EFFEFF309836FF001002E
:102D50009D60DF60BDE8F08129462046FFF7E3FA79
:102D60006FF00200BDE8F0815B78932BD8D1384634
:102D7000FFF743FD06460028D2D0204600F0BBFCFA
:102D800029460746012200F019FE384600F034FDBE
:102D9000626A8168074606F10C001CF031FB0723CC
:102DA000337001237370B570FB68F37031462046B1
:102DB000FFF786FD2046B968FFF7AFFA2846BDE861
:102DC000F08100BF9801002070B506460D461446FC
:102DD000FFF79DFAEFF305832BB9EFF3108313B9D7
:102DE000EFF3118333B16FF005010020FFF7BEF957
:102DF000002070BD304629462246DFF828C0EFF398
:102E0000148313F0020F0AD113F0040FEFF30883B9
:102E10000CBF203B683B23F0070383F3098800DFE6
:102E200070BD00BF252900082DE9F04104460F467A
:102E300090461D46FFF76DFAEFF3058333B9EFF3C4
:102E400010831BB9EFF31183002B3CD024B12378FE
:102E5000082B01D107B145B120466FF00301FFF700
:102E600085F96FF00300BDE8F08163782BB96FF04E
:102E700002012046FFF77AF921E004F10C00FFF788
:102E8000BCFC0646B8B1626A39460C301CF0B8FA90
:102E900007233370012373703046B57086F80380C2
:102EA0007760B46000F0DEFA20463946FFF734FA66
:102EB0002846BDE8F08139462046FFF72FFA6FF02B
:102EC0000200BDE8F0812046394642462B46DFF835
:102ED00008C000DFBDE8F081692A0008F8B50446A3
:102EE0000D4617461E46FFF71AFAEFF305832BB976
:102EF000EFF3108313B9EFF31183A3B324B1237855
:102F0000082B01D105B13EB120466FF00301FFF758
:102F10002DF96FF00300F8BD63782BB96FF0020153
:102F20002046FFF723F91BE02046FFF79CFE0646EC
:102F300090B100F10C01626A28461CF061FA0FB1F1
:102F4000F3783B7029462046FFF7ECF93046F460F1
:102F500000F088FA0020F8BD29462046FFF7E3F983
:102F60006FF00200F8BD204629463A463346DFF8A6
:102F700008C000DFF8BD00BFAD2C000870B530B34D
:102F8000846890E8600064B114F0030302D1C26861
:102F90001B2A0AD86FF008010020FFF7D5F800209F
:102FA00070BDC368ABB1F5E7012304222270A370A2
:102FB000012200236270E6706560A360E360236114
:102FC000636123762046FFF796F9204670BD0546DB
:102FD00006460A4BD3F89C0010B1FFF70EFC05E043
:102FE00001221C21D3F88800FFF77AFB0446002851
:102FF000DAD16FF00401FFF7A7F8E6E798010020A7
:10300000314B70B5DD6904460E4635B96FF00701E6
:10301000FFF79AF84FF0FF3070BD10B10378042B22
:1030200007D020466FF00301FFF78EF86FF0030022
:1030300070BD437813B96FF0020116E0017E51B9FB
:10304000EB6AC5604361016103B118610121EC6263
:10305000204621760FE0C378DA0710D5C268954282
:103060000DD1FF2904D16FF00F01FFF76DF827E0B4
:103070000131C9B20176FFF742F9002070BDE6B117
:103080009B070BD5E36895F9202093F92010914216
:1030900004DA83F82020E06800F048FB314620463F
:1030A000FFF72BF92946204600F012FB314653204A
:1030B00000F0B8FD6FF0010070BD2046FFF720F969
:1030C0006FF0020070BD00BF9801002038B5344B8E
:1030D000DD69044635B96FF00701FFF735F84FF0A9
:1030E000FF3038BD10B10378042B07D020466FF0B5
:1030F0000301FFF729F86FF0030038BD437813B9D7
:103100006FF0020109E0C3689D4202D06FF00D012B
:1031100003E0017E31B96FF00E01FFF715F86FF093
:10312000020038BD0139C9B20176FFF7EBF8237E02
:10313000002B32D163690BB122691A6122690AB18D
:10314000536100E0EB62E3789B070ED595F92120EF
:10315000EB6A43B1996821B191F920108A42B8BF56
:103160000A465B69F5E785F82020A36893B12046FD
:1031700000F0C1FA00220546114600F01FFCEB6A80
:10318000636101210023E56023612046EC62217622
:10319000FFF7B5F8002000F0E3FB002038BD00BFCA
:1031A0009801002010B5044610B10378042B07D015
:1031B00020466FF00301FEF7C7FF6FF0030010BD5C
:1031C000437833B96FF00201FEF7BEFF6FF00200E3
:1031D00010BD00234370037E83B36369C0680BB1E5
:1031E00022691A6122690AB1536100E0C362E3787F
:1031F0009A0714D590F92130C26A42B1916821B181
:1032000091F920108B42B8BF0B465269F5E790F94F
:1032100020209A4203D080F8203000F087FAA3687B
:103220001BB9002000F09CFB08E0204600F063FA88
:1032300000226FF0020100F0C1FBF0E7A378DB078A
:103240000BD5084BD3F89C00214610B1FFF704FBC7
:1032500003E0D3F88800FFF779FA2046FFF754F827
:10326000002010BD980100202DE9F0410446002601
:103270000127FCB1E378D4F814801B0718D5267613
:1032800000212046FFF73EF8A3688BB1204600F0EE
:1032900032FA00220546114600F090FBEB6AE56029
:1032A000636126610121EC6220462776FFF727F84B
:1032B0004446DEE7BDE8F08110B50446FFF71AF892
:1032C000EFF305832BB9EFF3108313B9EFF31183F9
:1032D00033B16FF005010020FEF736FF002010BD6E
:1032E0002046DFF828C0EFF3148313F0020F0AD151
:1032F00013F0040FEFF308830CBF203B683B23F06F
:10330000070383F3098800DF10BD00BF7D2F00088D
:1033100038B504460D46FEF7EFFFEFF305832BB9F2
:10332000EFF3108313B9EFF311833BB120466FF035
:103330000501FEF709FF6FF0050038BD204629465C
:10334000DFF804C000DF38BD0130000810B50446C6
:10335000FEF7D7FFEFF305832BB9EFF3108313B913
:10336000EFF311833BB120466FF00501FEF7ECFE51
:103370006FF0050010BD2046DFF804C000DF10BD6F
:10338000CD30000810B50446FEF7BDFFEFF305830E
:103390002BB9EFF3108313B9EFF311833BB1204640
:1033A0006FF00501FEF7D0FE6FF0050010BD20465E
:1033B000DFF804C000DF10BDA531000810B5D0E86B
:1033C0005F3F5A1C914200D80022C0E8542F04B13C
:1033D000F5E798B210BD000070B51F4D2C461F4E8A
:1033E000B5F85C10D6E85F3F13B9BFF32F8F04E048
:1033F0005A1EC6E8502F00B1F4E79BB23BB3184801
:10340000FFF7DCFF6B6E53F8200000B30378013B3D
:10341000062BE5D801A252F823F000BF393400088A
:10342000E13300083D340008E1330008413400086E
:103430004534000849340008A36E06E0E36E04E05A
:10344000236F02E0636F00E0A36F9847C7E7002097
:10345000BDE8704000F084BA98010020F601002019
:10346000FA01002070B5164C0546B4F85C1004F162
:103470005E02D2E85F3F994202D8BFF32F8F04E08B
:10348000581CC2E8560F06B1F3E79BB28B4210D22C
:1034900004F16000FFF792FF636E43F82050637AF7
:1034A00023B9084B4FF080525A6070BD0123E3727C
:1034B00070BD29460220BDE87040FEF7E1BD00BFA7
:1034C0009801002000ED00E0084B094ADB685268D3
:1034D000B3FBF2F3074A013B536000239360064BB2
:1034E000FF2283F823204FF0FF307047980100201F
:1034F0008898020810E000E000ED00E0014B072290
:103500001A60704710E000E0014B1B68704700BF75
:1035100010E000E038B5FFF7F7FF1D4BD3E90401D9
:103520009A6D013041F10001C3E904011D4602B169
:10353000904700F06BF9002000F012FAAA6C144BCF
:1035400022B3196C186A814202D018645A6438BDDB
:103550005A6C0AB1013A5A646B6C0D4CB3B9237AB8
:10356000022B13D1E56A8DB195F9202091F9203015
:103570009A420BD1284600F0CFF8206C00F0E8F812
:10358000284600F0DDF9A36C2564636438BD00BFF4
:103590009801002010B5034BDC692046FEF79EFE23
:1035A000204610BD9801002008B5FEF7E7FDDFF8C2
:1035B00010C000DF4FF0FF310020FEF7B3FDFEE743
:1035C0006D3C000812F0020F10B502F0010222D18A
:1035D00000F1280382B153E8000F00EA01028A4299
:1035E00003D0BFF32F8F002005E020EA010243E85B
:1035F000002404B1EFE710BD53E8000F084203D1E7
:10360000BFF32F8F002005E020EA010243E80024E9
:1036100004B1F1E710BD806A01EA00031AB19942D2
:1036200018BF002010BD002B08BF002010BD0000F7
:1036300010B50023437083789A0704460CD513F025
:10364000100F016B0E4B04D0D3F88C00FFF704F978
:1036500002E0D86FFFF77AF8A378DB070ED5084BA6
:10366000D3F89000214618B1BDE81040FFF7F4B838
:10367000D3F88800BDE81040FFF768B810BD00BF60
:103680009801002010B5044610B10378012B05D035
:1036900020460021FEF721FE002010BD4378002BBC
:1036A000F6D04168FEF719FE606810BD074A936BBB
:1036B00010B5002413B11C461B69FBE7C1614461CE
:1036C00003610CB1206110BD906310BD9801002012
:1036D00010B579B191F92020836833B193F9204076
:1036E000944202DB18469B68F7E7C8608B608160F4
:1036F00003B1D96010BD83682BB19A68826002B1B2
:10370000D0600022DA601846704720B10378012BA0
:1037100001D1C068F9E77047C36833B182689A6025
:10372000826802B1D3600023C360704710B50146C0
:1037300004462378012B03D1E468002CF9D110BD95
:103740000846FFF7E9FF2046BDE81040FFF7C0BF7D
:103750000123014643700148FFF7BABFBC010020B6
:103760004B1C30B402460C4602D130BCFFF79EBF62
:103770000C494B6B002033B1DD69AC4203D31846D2
:10378000641B1B69F7E7D4615061136108B10261E2
:1037900000E04A631BB1D9695A610C1BDC6130BC83
:1037A000704700BF98010020C16942694B1C10B5E9
:1037B0000CD11AB90F4B9B6B98421AD1036903B114
:1037C0005A6142697AB90B4A936310BD1AB9094B21
:1037D0005B6B98420DD103691BB1DC695A612144CE
:1037E000D96142691AB113610023436110BD014AD6
:1037F000536310BD9801002090F82230806B13F0C5
:10380000100F0CBF603020307047000038B52E4BD1
:103810005C6B1D46002C56D0E369013BE361002B35
:1038200051D16378532B27D008D8332B1BD0432B8F
:103830001CD0132B31D1FEF75AFD2EE0732B21D073
:1038400007D8632B29D12046FFF75FFFFEF75DFD08
:1038500023E0832B1CD0932B1FD12046FFF755FF6D
:10386000FEF759FD19E0FEF73FFD16E02046FFF791
:103870004CFFFEF73EFD10E02046FFF746FFFEF747
:103880003DFD0AE02046FFF740FFFEF73FFD04E064
:103890002046FFF73AFFFEF744FD2046FFF7ACFF56
:1038A00001682046FEF71DFD2046FFF735FF204644
:1038B000FFF74EFF246924B1E369002BB1D0002348
:1038C00063616C6338BD38BD9801002010B50123D9
:1038D000094A437090F92010D36A243233B193F926
:1038E00020408C4202DD1A469B68F7E7C260836085
:1038F000906003B1D86010BD98010020044B1B6894
:103900002BB11B691BB1034A126A506C18477047F0
:1039100080D9002098010020074BD96951B10B6B69
:103920008A6B934203D21A68044B9A4202D0012058
:10393000FEF7A6BB704700BF98010020A52E5AE2F3
:1039400010B502234370054B04461862FFF7E4FFED
:103950002046BDE81040FEF7C5BC00BF980100201E
:1039600010B5154B04461A7AD96970B9022ADC6A77
:1039700021D101B3FCB194F9202091F920309A4271
:1039800019DD2046FFF7C8FE08E0022A0ED169B112
:1039900090F9202091F920309A4207DD0846FFF780
:1039A00095FF2046BDE81040FFF7CABF2046BDE89E
:1039B0001040FFF7CDBE10BD9801002070B5044641
:1039C0000E461546FEF78DFC2046FFF715FF0660F4
:1039D0002046FFF7E9FE20461DB1BDE87040FFF725
:1039E000BFBFBDE87040FFF7B3BE38B54378332B97
:1039F000044613D190F82320416AFFF7E3FD054602
:103A000060B1014600222046FFF7D8FF2A4694F80D
:103A10002310606ABDE83840FEF767BC38BD00007F
:103A20002DE9F04F85B081460391029310B96FF0F4
:103A300003011EE082B3946802F11005E0CD3CB1B1
:103A4000A30702D1D368472B05D86FF008010FE018
:103A5000D368002BF9D12DB1680700D17EB96FF082
:103A60000A0105E047B17B1E372B06D96FF00B0129
:103A70000020FEF757FB56E018273EB102E0002F6A
:103A8000F1D118277107EAD1472EE8D913680193BD
:103A9000D2F804B0CCB904E01827164601921546B6
:103AA00093465A4BD3F8900010B1FEF7A6FE05E0FE
:103AB00001224821D3F88800FEF712FE044638B9E7
:103AC0006FF00401FEF72EFB9BE04FF0000A01E0CF
:103AD0004FF0010A8DBBDFF83481A6B94C4AD8F803
:103AE0008C00566D78B1FEF788FE054640B96FF040
:103AF00004010020FEF716FBBAF1000F0CD112E012
:103B00004AF0100A17E02A463146D8F87C00FEF742
:103B1000E7FD054678B9EAE7D8F89050214625B187
:103B20002846FEF799FE00206CE0384BD3F8880059
:103B3000FEF70CFEF7E74AF0020A019B63600023E0
:103B4000A360E36023616361A361E36184F82330D0
:103B50006362A362E362A6F1400301222B44227058
:103B600062707FB2A363FD222A4B84F802A084F81E
:103B700003B084F8207084F8217084F82220256333
:103B80006663C4F83C902B60214B1B685B0711D522
:103B90000435B608A6F111032A464FF0CC311BB10B
:103BA00042F8041B013BFAE706F18046113E05EBA3
:103BB000860500E0A56B05F134022B46002143F891
:103BC000041B9342FBD1144B6B634FF08073EB6388
:103BD000039B2B620D4BC5F83890104A9A6620461D
:103BE000FEF77AFB0E4B1B6833B19B6823B1029939
:103BF00020469847606401E0029B63642046FFF71B
:103C0000AFFE204605B0BDE8F08F00BF9801002050
:103C100088980208A52E5AE2A9350008EB39000859
:103C200080D90020F8B5104DEC6907460E46CCB19E
:103C30002B7A022B04D02046FFF76EFD0020F8BD42
:103C4000E86A80B12046FEF74BFB3146204667709C
:103C5000FFF786FD05F12400FFF74DFDFFF770FE2D
:103C60000120F8BD2046F8BD9801002070B51C4D1C
:103C7000EC69002C32D0E06AFFF7F6FAA06930B1A7
:103C800000221146FFF79AFEA069FEF728FB2B7A67
:103C9000134E022B22D1F36A03B3EFF30983A3631C
:103CA00006F12400FFF727FDFFF74AFE0023F3612A
:103CB000E378DB0701D5A3691BB12046FFF7B8FC09
:103CC00007E004226270E360F36BA36003B1DC6081
:103CD000EC632046BDE87040FEF705BB70BD00BF39
:103CE00098010020F8B507460E4615461C46FEF71B
:103CF000F2FAEFF305832BB9EFF3108313B9EFF367
:103D0000118333B16FF005010020FEF70BFA00209C
:103D1000F8BD384631462A462346DFF828C0EFF37F
:103D2000148414F0020F0AD114F0040FEFF3088486
:103D30000CBF203C683C24F0070484F3098800DFB2
:103D4000F8BD00BF213A00080023FFF7CBBF0000F9
:103D500008B50346EFF305822AB9EFF3108212B9D2
:103D6000EFF311822AB118460021FEF7B6FA0020BF
:103D700008BDDFF808C000DF08BD00BF85360008B9
:103D800008B5EFF305832BB9EFF3108313B9EFF305
:103D9000118323B10020FEF7A1FA002008BDDFF84F
:103DA00008C000DF08BD00BF953500080C4AD36C81
:103DB00030B5002433B11D69A94203D31C46491B09
:103DC000DB68F7E701618460C3601BB11D6998601F
:103DD000691A19610CB1E06030BDD06430BD00BF1C
:103DE0009801002070B5134DEC6C14B32369013BAE
:103DF000236101262369E3B9E3680BB1A2689A60E5
:103E0000EB6400231A4604F11801686DFFF70CF803
:103E100018B121460320FEF733F9E378012B04D1D2
:103E200061692046FFF7C2FF00E06670EC6C002C71
:103E3000E0D170BD980100200F4B13B51A6E586E7B
:103E40000E4C0821FEF7C0FF606590B10C4BA365D6
:103E50004FF0FF3300226946606DFFF73FF80028FE
:103E6000F6D19DE80300FEF743FA0198009B9847BE
:103E7000EEE702B010BD00BF88980208980100204C
:103E8000E53D0008024B1B6803B11847704700BFAF
:103E9000F8170020FEF7F8B90F49D1F8883043F43D
:103EA0007003C1F888300D4B1A68002042F00102FF
:103EB0001A6098601A6822F0A85222F410221A6040
:103EC0004FF48052DA601A6822F480221A609861F6
:103ED0004FF000638B60704700ED00E0001002407F
:103EE00070B5ACB01422002101A81BF087FB44225E
:103EF000002106A81BF082FB5422002117A81BF00A
:103F00007DFB0423069306A80123089301F0C2F861
:103F100020B9204A136843F00403136001F02CFE1B
:103F20001323069301230C9311930623B0221293BB
:103F3000282300240E92139302220723042606A8A6
:103F4000079409940D94109214931596169601F007
:103F5000A1F80546D0B901F01DFE4FF400531793A8
:103F600017A84FF04063279301F0C4FC0F2301937F
:103F7000314603230DEB0600029303950495059546
:103F800001F0FAFAB0FA80F0400900E020462CB0C7
:103F900070BD00BF0010024008B5FFF7A1FF00B9D7
:103FA000FEE708BDDFF824D0002103E0084B5B5892
:103FB000435004310748084B42189A42F6D3FFF7A2
:103FC0006BFFFCF711F97047FEE7000000000120CD
:103FD00060B0020888010020B40E0020FEE710B592
:103FE000044686B01822002168461BF007FB94F8AF
:103FF0006A30122B44D8DFE803F02E0A0C0E1012A0
:104000001416181A1C1E20222426282A2C000123EC
:1040100020E002231EE003231CE004231AE0052312
:1040200018E0062316E0072314E0082312E0092312
:1040300010E00A230EE00B230CE00C230AE00D2312
:1040400008E00E2306E00F2304E0102302E0112312
:1040500000E01223009301236946019320460423C4
:10406000029300F0E7F9204600F010FC0A212046F8
:1040700000F08CF920B9204600F0D8F980B200E0B9
:10408000002006B010BD0000A1F1F0039BB20F2B81
:1040900073B504460D460ED932492846FCF792FF07
:1040A000304920602846FCF7A9FF2E4906462846DD
:1040B000FCF74CFF09E02C492846FCF783FF2A490E
:1040C00020602846FCF79AFF06462368013304D196
:1040D0003E2226492648FDF767FB731C04D13F2288
:1040E00022492448FDF760FB234AA4F8685013686E
:1040F000C6F3043684F86A60002B31D101211160C7
:104100001E4AD06C40F40050D064D06C00F40050D3
:1041100001900198D2F8880040F04050C2F8880021
:104120004FF480226260042262614FF48052A365E2
:10413000A360E3602361A361E36121626362A16222
:10414000E16223636363A263E363204600F03EF809
:1041500010B10B48FDF70AFC0021204600F00CFCD2
:1041600002B070BDBC9A0208149A0208589B02085B
:10417000949B0208BE9B0208FC170020001002401E
:10418000D79B020808B5FFF72AFFC0F3032343EAD1
:10419000001080B208BD08B5032000F02DFC0F20F0
:1041A00003F084F900F044FE002008BD024A1368C1
:1041B00001331360704700BF84D90020014B186899
:1041C000704700BF84D9002070470000F7B5002376
:1041D00001930446002800F0C480856D25B9FFF7DF
:1041E000F3FFE56584F8545023689A68920042BF53
:1041F0009A6822F000529A609A68D70004D59A68AB
:10420000D60013D500201AE09A685C4942F080522B
:104210009A605B4A1268B2FBF1F10A224A430192AA
:10422000019A002AEBD0019A013AF8E7A26D42F018
:104230001002A265E26D42F00102E2650120A26D6A
:10424000D50600F18A809A68510700F18680A26D38
:1042500042F00202A2659A6802F00302012A40F0CD
:1042600082801A68D2077ED54FF4005191FAA1F1ED
:104270004FF48032B1FA81F5666A92FAA2F2E168EF
:10428000A76B0F43A1680F43E169B2FA82F2A9401C
:10429000394306FA02F2012E42EA010209D14FF433
:1042A000602191FAA1F1B1FA81F5A16A0139A94021
:1042B0000A43E56A012D03D0216B09B129430A4362
:1042C000DD68304929400A43DA609A6812F00C0F21
:1042D0002ED14FF4804292FAA2F20225B2FA82F273
:1042E00095FAA5F5B5FA85F6A569D96805FA02F239
:1042F000656BB540154321F4804222F002022A4347
:10430000DA60E26B012A0FD1256C626C19692A43CD
:10431000A56C42F001022A43E56C154321F4FF62CB
:1043200022F005022A4302E01A6922F001021A6112
:104330002269012A08BF216A1A6B03BF01F1FF310C
:1043400022F00F020A4322F00F021A63A36D23F03A
:10435000030343F00103A3650DE0A36D43F01003D5
:10436000A365012007E0084DAA6822F47C11626869
:104370000A43AA6078E703B0F0BD00BF80841E0046
:104380004802002007C0F0FF00030450F8B545695B
:10439000082D04460E460AD00368DB68DD0705D504
:1043A000836D43F0200383650120F8BD0425FFF7EA
:1043B00005FF074623681A68154211D1701CFAD010
:1043C00046B9A36D43F00403A365002384F8543079
:1043D0000320F8BDFFF7F2FEC01B8642EAD2F0E7E9
:1043E0001A68D868082D02F0080201D11D6003E0A8
:1043F00041045CBF04211960A16D41F40071A16505
:104400000AB90020F8BDDB6813F4406FF9D18304CA
:10441000F7D4A36D23F48073A365A06D10F48050CE
:10442000EFD1A36D43F00103A365F8BD0368186CD9
:1044300070470000F7B50023019390F85430012B2A
:1044400000F05A8103689A680124560780F85440A6
:1044500000F149814A680C68042A4FF4F86515D8C0
:104460001F6B95FAA5F6B6FA86F695FAA5F54FF004
:104470001F0E5643B5FA85F50EFA06F66A4327EA8B
:10448000060604FA02F232431A6348E0092A16D8F3
:10449000D3F834E095FAA5F6B6FA86F6571F95FAE2
:1044A000A5F5B5FA85F27E431F2505FA06F67A438F
:1044B0002EEA060604FA02F232435A632FE00E2A6D
:1044C00017D8D3F838E095FAA5F7B7FA87F7A2F12D
:1044D0000A0695FAA5F5B5FA85F277431F2505FA80
:1044E00007F772432EEA070704FA02F23A439A6387
:1044F00015E0DF6B95FAA5F6B6FA86F60F3A95FA4F
:10450000A5F54FF01F0E5643B5FA85F50EFA06F6DF
:104510006A4327EA060604FA02F23243DA639A682B
:1045200012F00C0F40F0C180092C4FF038028F6858
:1045300019D9D3F818C092FAA2FEBEFA8EFEA4F1E1
:104540000A0692FAA2F2B2FA82F506FB0EF24FF0D8
:10455000070E0EFA02F26E432CEA020207FA06F583
:1045600015439D6114E05D6992FAA2F6B6FA86F6EB
:1045700092FAA2F24FF0070EB2FA82F266430EFAF6
:1045800006F6624325EA060607FA02F535435D6141
:10459000DA680D694E69C2F3C1025200013D9640CE
:1045A0004FF0F842032D3ED8DFE805F00211202F2E
:1045B0001F6E92FAA2F5974A3A40B5FA85F542F095
:1045C0000042324304FA05F52A431A666DE05F6E35
:1045D00092FAA2F58F4A3A40B5FA85F542F00042C8
:1045E000324304FA05F52A435A665EE09F6E92FA5A
:1045F000A2F2884D3D40B2FA82F245F000452E43CA
:1046000004FA02F232439A664FE0DF6E92FAA2F2A7
:10461000804D3D40B2FA82F245F000452E4304FA47
:1046200002F2324340E01D6E92FAA2F2B2FA82F236
:1046300004FA02F205F0F845954202BF1A6E22F024
:1046400000421A665D6E4FF0F84292FAA2F2B2FA98
:1046500082F204FA02F205F0F845954202BF5A6E62
:1046600022F000425A669D6E4FF0F84292FAA2F292
:10467000B2FA82F204FA02F205F0F845954202BF5E
:104680009A6E22F000429A66DD6E4FF0F84292FA7E
:10469000A2F2B2FA82F205F0F84504FA02F295426B
:1046A00003D1DA6E22F00042DA669A6802F0030261
:1046B000012A02D11A68D50713D4CA68B2F1804F13
:1046C0004FF001021AD0D3F8B010A24021EA020242
:1046D000C3F8B020112C4BD14F4A926812F4000F4E
:1046E00054D0002403E0836D43F02003836500234E
:1046F00080F8543020468AE0022088E0D3F8B05099
:10470000A2402A43082CC3F8B0208D684FF038022D
:1047100017D99F6992FAA2F6B6FA86F6A4F10901B2
:1047200092FAA2F24FF0070EB2FA82F24E430EFA5C
:1047300006F6514327EA060605FA01F232439A616A
:10474000C8E75F6992FAA2F6B6FA86F6611C92FA99
:10475000A2F24FF0070EB2FA82F24E430EFA06F6BC
:104760004A4327EA060605FA02F232435A61B1E7E4
:10477000122C04D1284A926812F0807FB0E7002CF6
:10478000AFD1254A926812F4800FA9E79A6802F027
:104790000302012A08D11968C90705D5836D43F0C2
:1047A000200383651446A2E7112C16D11B4A9342BD
:1047B00097D1D2F8083343F40003C2F80833184BFA
:1047C000184A1B68B3FBF2F2782353430193019B11
:1047D000002B86D0019B013BF8E7122C09D10F4A30
:1047E000934202BFD2F8083343F08073C2F8083313
:1047F00077E7002C7FF475AF084A93427FF471AFDE
:10480000D2F8083343F48003C2F808336FE703B0EB
:10481000F0BD00BF00F0FF0300030450000004508F
:104820004802002080841E0038B503689A6802F0B0
:104830000302012A044604D11A68D10701D50020D9
:1048400038BD9968104A0A409AB99A6842F0010244
:104850009A60FFF7B3FC054623681A68D207EED4C6
:104860009A6842F001029A60FFF7A8FC401B0228F8
:10487000F2D9A36D43F01003A365E36D43F0010388
:10488000E365012038BD00BF3F00008038B50368F4
:104890009B6813F00405044634D190F85430012B82
:1048A00030D0012380F85430FFF7BEFF38BBA36D32
:1048B000226813F480531CBFE36D23F00603E36505
:1048C000A36D23F4706323F0010343F48073A365A5
:1048D000A36D23F48013A3651C231360D3689B018D
:1048E00041BFA36D23F4405343F48053A365936801
:1048F000002043F0040384F85400936038BD84F82A
:10490000545038BD022038BD38B503680446986855
:1049100000F00300012801D0002038BD1A68D2073A
:10492000FAD59A6802F00D02012A09D19A6842F07C
:1049300002029A6003221A60FFF740FC054608E075
:10494000A36D43F01003A365E36D43F00103E3653A
:1049500038BD23689B68DB07DED5FFF72FFC401BC3
:104960000228F6D9A36D43F01003A365E36D43F06D
:104970000103E365012038BD38B590F85430012BB0
:1049800004460D4635D0012380F85430FFF7BCFFB4
:10499000A36D38BB23F4885323F0020343F00203D2
:1049A000A3652368996821F080410D439D609A6852
:1049B00042F000429A604FF47A42996800290BDA7B
:1049C000013AFAD1A36D84F8542023F0120343F086
:1049D0001003A365012038BDA36D23F0030343F04A
:1049E000010301E043F01003A365002384F8543071
:1049F00038BD022038BD0000074AD36823F4E063C5
:104A00001B041B0C43F0BF63000243F4003300F4AB
:104A1000E0600343D360704700ED00E0394B1A6952
:104A2000900741BF38494A6842F001024A601B6959
:104A3000190741BF344A536843F002035360314BB6
:104A40001A69D20641BF30494A6842F004024A60FE
:104A50001B699B0641BF2C4A536843F0080353600F
:104A6000284B1A69500641BF27494A6842F0100294
:104A70004A601B69190641BF234A536843F020036B
:104A80005360204B1A69D20541BF1F494A6842F062
:104A900040024A601B69980541BF1B4A536843F0B6
:104AA00080035360174B1A69510441BF16494A6885
:104AB00042F480724A601B691A0441BF124A53686B
:104AC00043F4007353600F4B9A69002ABFBF0E492D
:104AD0004A6842F480624A601B699B0308D50A4A0F
:104AE000536843F400635360064B4FF400321A617D
:104AF000044B9A6942F000429A614CF2FA321A6110
:104B0000704700BF0020024088D90020074A53693F
:104B100043F48023536172B601F58073401A0A682A
:104B20000A5004319942FAD162B67047002002401F
:104B3000064B5A69002ABFBF054A9A6002F18832C3
:104B40000020B4BF9A600120704700BF00200240DF
:104B500023016745034A536943F000435361002032
:104B6000704700BF0020024070B50446FFF726FBE7
:104B7000204D06192A691F4BD20307D5611CF9D0B5
:104B8000FFF71CFB8642F5D8032070BD1A69900719
:104B900022D41A6911071FD41A69D2061CD41A69C3
:104BA000960619D41A69550616D41A69140613D430
:104BB0001A69D00510D41A6991050DD41B695A04DD
:104BC0000AD40C4A13691B0406D49369002B03DB37
:104BD000106910F4003003D0FFF720FF012070BDF2
:104BE000136913F0010302D00123136170BD18464D
:104BF00070BD00BF002002402DE9F843254C9946C6
:104C00002378012B06460F46904640D001234CF2F4
:104C100050302370FFF7A8FF0546002832D16060AE
:104C20001D48056815F4806517BF0368257723F4D0
:104C3000806303601CBF022323774EB9456945F0AA
:104C4000010545610126C7F80080C7F804900CE013
:104C5000731E012B01D9002607E041463846FFF7B5
:104C600055FF022EF7D14FF480264CF25030FFF75B
:104C70007BFF054626B1084A536923EA06065661BA
:104C800000F034F8002323702846BDE8F8830220A2
:104C9000BDE8F88388D9002000200240064B10F0C0
:104CA000010F1EBF5A6942F004025A615A6942F468
:104CB00080325A61704700BF002002400A4B4FF417
:104CC000FF62596992FAA2F2B2FA82F2904021F49C
:104CD000FF61084358615A6942F002025A615A69F9
:104CE00042F480325A61704700200240154B1A7F0F
:104CF000012A02D01A7F032A0CD1134A116841F409
:104D000000611160116821F400611160116841F4C3
:104D1000007111601A7F022A03D00A4A127F032A07
:104D20000CD1094A116841F480511160116821F4D5
:104D300080511160116841F48061116000221A777E
:104D4000704700BF88D90020002002402DE9F843B9
:104D5000354C2378012B0646884662D001274CF259
:104D600050302770FFF700FF0546002854D12F4B25
:104D700060601A6812F4007F1A680DD022F4007285
:104D80001A601A68510505D51A6822F480621A6003
:104D9000032308E0277709E0520506D51A6822F4B4
:104DA00080621A600223237700E020773368012BAA
:104DB0000DD17068FFF772FF4CF25030FFF7D4FE50
:104DC0001A4A536923F004030546536122E04FF069
:104DD000FF33C8F80030B768DFF85090B268F36866
:104DE00013449F4216D271683846FFF767FF4CF2B2
:104DF0005030FFF7B9FED9F8143023F4FF6323F0E5
:104E00000203C9F8143018B1C8F80070054601E073
:104E10000137E3E7FFF76AFF002323702846BDE868
:104E2000F8830220BDE8F88388D9002000200240E2
:104E3000704700000D4B10B55B690C4620B99A0510
:104E400006D500F027F803E09B0501D400F01AF81E
:104E5000074A1369012C23F00403136101D130BF09
:104E600010BD40BF20BF20BF10BD00BF007000407C
:104E700000ED00E0024B186800F4C060704700BF0E
:104E800000700040024A136843F480431360704787
:104E9000007000400C4B0D491A6822F480421A60E1
:104EA0000B4A1268B2FBF1F132224A4322B159692E
:104EB000890501D5013AF9E7034B5B6913F4007FDB
:104EC00014BF0320002070470070004040420F00D4
:104ED0004802002037B51E4DAB6DD900044602D5FF
:104EE000FFF7C8FF0EE0AB6D43F08053AB65AB6DD1
:104EF00003F080530193019BFFF7BCFFAB6D23F0E0
:104F00008053AB65B0F5007F06D1802C0CD9A02C66
:104F10008CBF022301230CE0802C07D808D0A4F119
:104F200070025342534104E0002302E0032300E0F7
:104F3000022308490A6822F007021A430A60086837
:104F400000F00700C01A18BF012003B030BD00BF39
:104F5000001002400020024070B54A4CA36813F0D4
:104F60000C0F09D0A36803F00C030C2B26D1E368C7
:104F700003F00303012B21D12268424B12070AD40C
:104F8000D3F894304FF4706292FAA2F2B2FA82F23D
:104F900003F4706307E01B68F02292FAA2F2B2FAFF
:104FA00082F203F0F003D340374A52F82360A3683B
:104FB00013F00C0F0CBF3046002011E0A36803F083
:104FC0000C03042B07D02F4B9B6803F00C03082B1A
:104FD00004D12E4800E02E48002601E000200646BD
:104FE000A368284A03F00C030C2B49D1D168D3687D
:104FF000702090FAA0F003F07003B0FA80F023FA6A
:1050000000F001F00303022B00F101054FF4FE4113
:105010000CD0032B19D1D36891FAA1F1B1FA81F127
:1050200003F4FE4323FA01F1184A09E0D36891FA28
:10503000A1F1174AB1FA81F103F4FE4323FA01F119
:10504000B2FBF5F000FB01F30BE0D26891FAA1F19D
:10505000B1FA81F102F4FE42CA40B6FBF5F000FB62
:1050600002F3E2684FF0C06090FAA0F0B0FA80F06E
:1050700002F0C06222FA00F001304000B3FBF0F011
:1050800070BD00BF00100240189C020800127A0098
:105090000024F40003682DE9F341DD06044640F1E5
:1050A0008F809E4DAB6813F00C0F53D12B6898077F
:1050B00003D5A369002B00F056822A68974B206A1B
:1050C000110756BFD3F894301B681B0903F0F00397
:1050D000834216D2FFF7FEFE002840F044822B6880
:1050E00043F008032B602B6823F0F002236A13437C
:1050F0002B606B68E26923F47F4343EA02236B6011
:1051000014E02B6843F008032B602B6823F0F003B6
:1051100003432B606B68E26923F47F4343EA022375
:105120006B60FFF7D7FE002840F01D82FFF714FFE9
:10513000AB68F02292FAA2F2B2FA82F203F0F00324
:10514000D340774AD35CD840764B18600F2002F0EA
:10515000ADF935E083691BB32B6843F001032B6085
:10516000FFF72CF806462A686C4B920706D4FFF727
:1051700025F8801B0228F6D90320F5E11A6842F0D1
:1051800008021A601A6822F0F001226A0A431A60C3
:105190005A68E16922F47F4242EA01225A600FE034
:1051A0002B6823F001032B60FFF708F806462B68F5
:1051B0009F0705D5FFF702F8801B0228F7D9DBE728
:1051C0002368DE0703D423689D0748D49FE0534D2E
:1051D000AB6803F00C03082B09D0AB6803F00C0399
:1051E0000C2B0BD1EB6803F00303032B06D12B68C8
:1051F0009803E8D56368002BE5D1B4E16368B3F5A3
:10520000803F06D0B3F5A02F08D12B6843F480234C
:105210002B602B6843F480332B6008E02A6822F46B
:1052200080322A602A6822F480222A605BB1FEF76D
:10523000C5FF06462B689903C5D4FEF7BFFF801B48
:10524000C828F7D998E7FEF7B9FF06462B689A03F6
:10525000B9D5FEF7B3FF801BC828F7D98CE72F4DCF
:10526000AB6803F00C03042B09D0AB6803F00C030C
:105270000C2B1AD1EB6803F00303022B15D12B681A
:105280005B0503D5E368002B00F06D816B684FF080
:10529000F85292FAA2F22169B2FA82F201FA02F20B
:1052A00023F0F85313436B6031E0E368FBB12B68E4
:1052B00043F480732B60FEF781FF06462B68174886
:1052C0005F0505D4FEF77AFF801B0228F6D953E765
:1052D00043684FF0F85292FAA2F22169B2FA82F2D0
:1052E00001FA02F223F0F853134343600FE02B68F6
:1052F00023F480732B60FEF761FF06462B68580588
:1053000005D5FEF75BFF801B0228F7D934E7236839
:10531000190709D423685A072FD497E000100240D8
:10532000FF9B0208480200206369914D93B1D5F8B4
:10533000943043F00103C5F89430FEF73FFF064672
:10534000D5F894309B07E5D4FEF738FF801B022880
:10535000F6D911E7D5F8943023F00103C5F894305D
:10536000FEF72CFF0646D5F894309F07D2D5FEF7FE
:1053700025FF801B0228F6D9FEE67D4DAB6DD800D7
:105380000AD4AB6D43F08053AB65AB6D03F0805333
:105390000193019B012700E00027764E3368D90571
:1053A00003D5A368012B11D118E0336843F480734F
:1053B0003360FEF703FF80463368DA05F1D4FEF769
:1053C000FDFEC8EB00000228F6D9D5E6052B0CD16E
:1053D000D5F8903043F00403C5F89030D5F89030FC
:1053E00043F00103C5F890300CE0D5F8902022F08E
:1053F0000102C5F89020D5F8902022F00402C5F8EB
:10540000902073B1FEF7DAFE41F288380646D5F8EF
:1054100090309B070ED4FEF7D1FE801B4045F6D995
:10542000AAE6FEF7CBFE41F288380646D5F8903062
:10543000980705D457B1AB6D23F08053AB6505E0F9
:10544000FEF7BCFE801B4045F0D995E6236899061F
:1054500002D4A26A4ABB5FE0636A454D93B1D5F8B6
:10546000983043F00103C5F89830FEF7A7FE0646D2
:10547000D5F898309A07ECD4FEF7A0FE801B0228DE
:10548000F6D979E6D5F8983023F00103C5F89830BD
:10549000FEF794FE0646D5F898309B07D9D5FEF75F
:1054A0008DFE801B0228F6D966E6314DAB6803F00D
:1054B0000C030C2B57D02B68022A23F080732B602F
:1054C00038D1FEF77BFE06462B6829489F0125D47C
:1054D000A66B636B226BF60646EA0321E36A013A88
:1054E0000B4343EA0211E36B5B08013B41EA435281
:1054F000236C5B08013B42EA4363C360036843F0EB
:1055000080730360C36843F08073C360FEF756FE88
:1055100004462B68990107D5002025E0FEF74EFED2
:10552000801B0228D0D927E6FEF748FE001B022880
:10553000EFD921E62B681A015EBFEB6823F0030365
:10554000EB60EB6823F0887323F48033EB60FEF7A5
:1055500035FE04462B689B01DED5FEF72FFE001BAF
:105560000228F7D908E6012002B0BDE8F08100BFAB
:105570000010024000700040574A136803F0070310
:105580008B422DE9F04105460E460AD3296888076B
:1055900014D55248836823F0F002AB68134383604C
:1055A0000CE0136823F007030B431360136803F048
:1055B00007039942EAD00120BDE8F081CA0706D46A
:1055C000454A136803F007039E4251D35AE06B68C3
:1055D000424C022B226802D112F4003F0AE0032B56
:1055E00002D112F0007F05E013B912F0020F01E0C2
:1055F00012F4806FDFD0A26822F003021343A3608D
:10560000FEF7DCFD6B68022B074641F288380CD1AF
:10561000A36803F00C03082BD2D0FEF7CFFDC01B0C
:105620004045F5D90320BDE8F081032B0AD1A368DA
:1056300003F00C030C2BC3D0FEF7C0FDC01B40458C
:10564000F5D9EFE773B9A36813F00C0FB8D0FEF7E4
:10565000B5FDC01B4045F6D9E4E7FEF7AFFDC01B22
:105660004045DFD8A36803F00C03042BF5D1A7E76E
:10567000136823F0070333431360136803F0070331
:105680009E4298D12968154C11F0040F05D0A368EB
:1056900023F4E062EB681343A3600B0706D5A3680D
:1056A0002A6923F4605343EAC203A360FFF754FC62
:1056B000A368F02292FAA2F2B2FA82F203F0F003A7
:1056C000D340074AD35CD840064B18600F2001F046
:1056D000EDFE0020BDE8F0810020024000100240F5
:1056E000FF9B020848020020084B4FF4E0629B68D1
:1056F00092FAA2F2B2FA82F203F4E063D340044ACF
:10570000D35C044A1068D840704700BF00100240C4
:105710000F9C020848020020084B4FF460529B681F
:1057200092FAA2F2B2FA82F203F46053D340044A2E
:10573000D35C044A1068D840704700BF0010024094
:105740000F9C0208480200200F2303600B4B9A684D
:1057500002F0030242609A6802F0F00282609A68E6
:1057600002F4E062C2609B68DB0803F4E06303615B
:10577000034B1B6803F007030B60704700100240E7
:1057800000200240F8B55A4BDA6812F0030F0446C5
:105790000E461D46006813D0DA6802F0030282420A
:1057A00024D11AB3DA68702393FAA3F3B3FA83F11E
:1057B00002F07003CB4062680133934216D125E0BA
:1057C000022808D003280AD001280FD11B689F07A0
:1057D00040F18D800CE01B6813F4806F05E01A68BF
:1057E000910305D41B6813F4802F01D10120F8BD6B
:1057F000E968702393FAA3F3B3FA83F26368013B79
:10580000934021F0730210431843E8602B6823F0A3
:1058100080632B60FEF7D2FC07462B6834491A01DF
:1058200006D5FEF7CBFCC01B0228F6D90320F8BD35
:105830004FF4FE43A768B6B9086993FAA3F24FF094
:105840007846B2FA82F296FAA6F607FA02F3E2680E
:10585000B6FA86F6B240134320F0784222F4FE42B4
:105860001A430A612DE0012E086913D193FAA3F2BD
:105870004FF4C003B2FA82F293FAA3F326697608D2
:10588000B3FA83F3013E9E4007FA02F3334320F458
:10589000C00212E093FAA3F24FF0C063B2FA82F2B0
:1058A00093FAA3F366697608B3FA83F3013E9E4048
:1058B00007FA02F3334320F0C06222F4FE4213439E
:1058C0000B612B6843F080632B60FEF777FC064684
:1058D0002B68074A1B0105D4FEF770FC801B0228C9
:1058E000F6D9A3E71169A3690B4313610020F8BD42
:1058F000001002402DE9F743056815F400650446E1
:105900001FD0C16BB1F5000F04D0B1F5400F0CD022
:10591000B1B905E0964AD36843F48033D36004E01C
:105920000430FFF72FFF054658B99149D1F8883068
:1059300023F44002E36B1343C1F88830002500E0F4
:10594000012523689E035AD5894EB36DD8000AD429
:10595000B36D43F08053B365B36D03F0805301938F
:10596000019B012700E00027DFF80882D8F800300B
:1059700043F48073C8F80030FEF720FC8146D8F865
:105980000030D90506D4FEF719FCC9EB0000022847
:10599000F5D92EE075BBD6F89030754A13F44073F4
:1059A00014D0216D8B4211D0D2F89030D2F89010E3
:1059B00041F48031C2F89010D2F8901023F4407373
:1059C00021F48031C2F89010C2F89030DA0740F12B
:1059D000C280FEF7F3FB41F288398046D6F890305A
:1059E0009B0700F1B880FEF7E9FBC8EB00004845D3
:1059F000F4D903251FB1B36D23F08053B365236839
:105A0000DF0708D55A48D0F8882022F00301226A1F
:105A10000A43C0F888209E0708D55548D0F888204A
:105A200022F00C01626A0A43C0F88820980608D563
:105A30004F48D0F8882022F44061A26A0A43C0F897
:105A40008820990508D54A48D0F8882022F44021BA
:105A5000626B0A43C0F888205A0508D54448D0F83C
:105A6000882022F44011A26B0A43C0F888205F0608
:105A700008D53F48D0F8882022F44051E26A0A4312
:105A8000C0F88820DE0508D53948D0F8882022F4EF
:105A90004031226B0A43C0F8882098041AD5344A52
:105AA000216CD2F8883023F040630B43B1F1006FD2
:105AB000C2F8883004D1D36843F48013D36009E07E
:105AC000B1F1806F06D10121201DFFF75BFE002898
:105AD00018BF0546236859031AD5254A616CD2F8C8
